{
  "contractName": "Contract",
  "abi": [
    {
      "inputs": [
        {
          "internalType": "address",
          "name": "",
          "type": "address"
        }
      ],
      "name": "callMe",
      "outputs": [],
      "stateMutability": "nonpayable",
      "type": "function"
    }
  ],
  "bytecode": "0x608060405234801561001057600080fd5b506101ca806100206000396000f3fe608060405234801561001057600080fd5b506004361061002b5760003560e01c8063b27b880414610030575b600080fd5b61004a600480360381019061004591906100ea565b61004c565b005b6040517f08c379a000000000000000000000000000000000000000000000000000000000815260040161007e90610174565b60405180910390fd5b600080fd5b600073ffffffffffffffffffffffffffffffffffffffff82169050919050565b60006100b78261008c565b9050919050565b6100c7816100ac565b81146100d257600080fd5b50565b6000813590506100e4816100be565b92915050565b600060208284031215610100576100ff610087565b5b600061010e848285016100d5565b91505092915050565b600082825260208201905092915050565b7f52657665727420616e7977617900000000000000000000000000000000000000600082015250565b600061015e600d83610117565b915061016982610128565b602082019050919050565b6000602082019050818103600083015261018d81610151565b905091905056fea2646970667358221220363451ea4a9bcb848a4122562266d7a0e96500120ba0cdaf85746884134db87c64736f6c634300080a0033",
  "immutableReferences": {},
  "source": "contract Contract {\n    function callMe(address) external {\n        revert(\"Revert anyway\");\n    }\n}",
  "sourcePath": "/Users/rp/Truffle/contracts/Contract.sol",
  "compiler": {
    "name": "solc",
    "version": "0.8.10+commit.fc410830.Emscripten.clang"
  },
  "schemaVersion": "3.4.3",
  "updatedAt": "2022-01-12T01:42:41.186Z",
  "networkType": "ethereum",
  "devdoc": {
    "kind": "dev",
    "methods": {},
    "version": 1
  },
  "userdoc": {
    "kind": "user",
    "methods": {},
    "version": 1
  }
}