{
  "contractName": "OOM",
  "abi": [
    {
      "anonymous": false,
      "inputs": [
        {
          "indexed": true,
          "internalType": "address",
          "name": "addr",
          "type": "address"
        },
        {
          "indexed": false,
          "internalType": "bytes",
          "name": "revertReason",
          "type": "bytes"
        }
      ],
      "name": "Reverted",
      "type": "event"
    },
    {
      "inputs": [
        {
          "internalType": "address",
          "name": "addr",
          "type": "address"
        }
      ],
      "name": "callMe",
      "outputs": [],
      "stateMutability": "nonpayable",
      "type": "function"
    }
  ],
  "bytecode": "0x608060405234801561001057600080fd5b50610274806100206000396000f3fe608060405234801561001057600080fd5b506004361061002b5760003560e01c8063b27b880414610030575b600080fd5b61004a60048036038101906100459190610156565b61004c565b005b60606000806000604051935036600085376000803686885af490503d9150816000853e806000811461007d57610093565b60008311156100925761012085019350836040525b5b5060008114156100ec578473ffffffffffffffffffffffffffffffffffffffff167f410d96db3f80b0f89b36888c4d8a94004268f8d42309ac39b7bcba706293e099856040516100e3919061021c565b60405180910390a25b5050505050565b600080fd5b600073ffffffffffffffffffffffffffffffffffffffff82169050919050565b6000610123826100f8565b9050919050565b61013381610118565b811461013e57600080fd5b50565b6000813590506101508161012a565b92915050565b60006020828403121561016c5761016b6100f3565b5b600061017a84828501610141565b91505092915050565b600081519050919050565b600082825260208201905092915050565b60005b838110156101bd5780820151818401526020810190506101a2565b838111156101cc576000848401525b50505050565b6000601f19601f8301169050919050565b60006101ee82610183565b6101f8818561018e565b935061020881856020860161019f565b610211816101d2565b840191505092915050565b6000602082019050818103600083015261023681846101e3565b90509291505056fea26469706673582212202f624cea7635d4267222e2bd7f5615e710ac6e1c0835b416f6983c4e6b58d0d164736f6c634300080a0033",
  "immutableReferences": {},
  "source": "contract OOM {\n    event Reverted(address indexed addr, bytes revertReason);\n\n    function callMe(address addr) external {\n        bytes memory ptr;\n        uint256 offset;\n        uint256 size;\n        uint256 result;\n\n        assembly {\n            ptr := mload(0x40)\n            calldatacopy(ptr, 0, calldatasize())\n            result := delegatecall(gas(), addr, ptr, calldatasize(), 0, 0)\n            size := returndatasize()\n            returndatacopy(ptr, 0, size)\n\n            switch result\n            case 0 {\n                if gt(size, 0) {\n                    offset := add(ptr, 0x120)\n                    mstore(0x40, offset)\n                    // ptr := add(ptr, 4)\n                    // let lengthFieldLength := mload(ptr)\n                    // ptr := add(ptr, lengthFieldLength)\n                }\n            }\n        }\n\n        if (result == 0) {\n            emit Reverted(addr, ptr);\n        }\n    }\n}",
  "sourcePath": "/Users/rp/Truffle/contracts/OOM.sol",
  "compiler": {
    "name": "solc",
    "version": "0.8.10+commit.fc410830.Emscripten.clang"
  },
  "schemaVersion": "3.4.3",
  "updatedAt": "2022-01-12T01:42:41.189Z",
  "networkType": "ethereum",
  "devdoc": {
    "kind": "dev",
    "methods": {},
    "version": 1
  },
  "userdoc": {
    "kind": "user",
    "methods": {},
    "version": 1
  }
}